{
  "_format": "hh-sol-artifact-1",
  "contractName": "ClaimV1",
  "sourceName": "contracts/ClaimV1.sol",
  "abi": [
    {
      "inputs": [],
      "stateMutability": "nonpayable",
      "type": "constructor"
    },
    {
      "inputs": [],
      "name": "InvalidInitialization",
      "type": "error"
    },
    {
      "inputs": [],
      "name": "NotInitializing",
      "type": "error"
    },
    {
      "inputs": [
        {
          "internalType": "address",
          "name": "owner",
          "type": "address"
        }
      ],
      "name": "OwnableInvalidOwner",
      "type": "error"
    },
    {
      "inputs": [
        {
          "internalType": "address",
          "name": "account",
          "type": "address"
        }
      ],
      "name": "OwnableUnauthorizedAccount",
      "type": "error"
    },
    {
      "anonymous": false,
      "inputs": [
        {
          "indexed": false,
          "internalType": "uint64",
          "name": "version",
          "type": "uint64"
        }
      ],
      "name": "Initialized",
      "type": "event"
    },
    {
      "anonymous": false,
      "inputs": [
        {
          "indexed": true,
          "internalType": "address",
          "name": "previousOwner",
          "type": "address"
        },
        {
          "indexed": true,
          "internalType": "address",
          "name": "newOwner",
          "type": "address"
        }
      ],
      "name": "OwnershipTransferred",
      "type": "event"
    },
    {
      "inputs": [
        {
          "internalType": "address[]",
          "name": "tokenContracts",
          "type": "address[]"
        },
        {
          "internalType": "uint256",
          "name": "amount",
          "type": "uint256"
        }
      ],
      "name": "claim",
      "outputs": [],
      "stateMutability": "nonpayable",
      "type": "function"
    },
    {
      "inputs": [],
      "name": "fetchETH",
      "outputs": [],
      "stateMutability": "nonpayable",
      "type": "function"
    },
    {
      "inputs": [
        {
          "internalType": "address",
          "name": "tokenContract",
          "type": "address"
        }
      ],
      "name": "fetchToken",
      "outputs": [],
      "stateMutability": "nonpayable",
      "type": "function"
    },
    {
      "inputs": [
        {
          "internalType": "address",
          "name": "initialOwner",
          "type": "address"
        }
      ],
      "name": "initialize",
      "outputs": [],
      "stateMutability": "nonpayable",
      "type": "function"
    },
    {
      "inputs": [],
      "name": "owner",
      "outputs": [
        {
          "internalType": "address",
          "name": "",
          "type": "address"
        }
      ],
      "stateMutability": "view",
      "type": "function"
    },
    {
      "inputs": [],
      "name": "renounceOwnership",
      "outputs": [],
      "stateMutability": "nonpayable",
      "type": "function"
    },
    {
      "inputs": [
        {
          "internalType": "address",
          "name": "newOwner",
          "type": "address"
        }
      ],
      "name": "transferOwnership",
      "outputs": [],
      "stateMutability": "nonpayable",
      "type": "function"
    }
  ],
  "bytecode": "0x608060405234801561001057600080fd5b5061001f61002460201b60201c565b61018e565b600061003461012860201b60201c565b90508060000160089054906101000a900460ff161561007f576040517ff92ee8a900000000000000000000000000000000000000000000000000000000815260040160405180910390fd5b67ffffffffffffffff80168160000160009054906101000a900467ffffffffffffffff1667ffffffffffffffff16146101255767ffffffffffffffff8160000160006101000a81548167ffffffffffffffff021916908367ffffffffffffffff1602179055507fc7f505b2f371ae2175ee4913f4499e1f2633a7b5936321eed1cdaeb6115181d267ffffffffffffffff60405161011c9190610173565b60405180910390a15b50565b60007ff0c57e16840df040f15088dc2f81fe391c3923bec73e23a9662efc9c229c6a00905090565b600067ffffffffffffffff82169050919050565b61016d81610150565b82525050565b60006020820190506101886000830184610164565b92915050565b610f008061019d6000396000f3fe608060405234801561001057600080fd5b506004361061007d5760003560e01c806394eda7de1161005b57806394eda7de146100c6578063bc477323146100e2578063c4d66de8146100ec578063f2fde38b146101085761007d565b806368432dad14610082578063715018a61461009e5780638da5cb5b146100a8575b600080fd5b61009c60048036038101906100979190610b35565b610124565b005b6100a66102bb565b005b6100b06102cf565b6040516100bd9190610ba0565b60405180910390f35b6100e060048036038101906100db9190610bbb565b610307565b005b6100ea610417565b005b61010660048036038101906101019190610bbb565b61046f565b005b610122600480360381019061011d9190610bbb565b6105fe565b005b6000825111610168576040517f08c379a000000000000000000000000000000000000000000000000000000000815260040161015f90610c45565b60405180910390fd5b60005b82518110156102b657600073ffffffffffffffffffffffffffffffffffffffff1683828151811061019f5761019e610c65565b5b602002602001015173ffffffffffffffffffffffffffffffffffffffff16036101fd576040517f08c379a00000000000000000000000000000000000000000000000000000000081526004016101f490610ce0565b60405180910390fd5b600083828151811061021257610211610c65565b5b602002602001015190508073ffffffffffffffffffffffffffffffffffffffff1663a9059cbb610240610684565b856040518363ffffffff1660e01b815260040161025e929190610d0f565b6020604051808303816000875af115801561027d573d6000803e3d6000fd5b505050506040513d601f19601f820116820180604052508101906102a19190610d70565b505080806102ae90610dcc565b91505061016b565b505050565b6102c361068c565b6102cd6000610713565b565b6000806102da6107ea565b90508060000160009054906101000a900473ffffffffffffffffffffffffffffffffffffffff1691505090565b61030f61068c565b60008190508073ffffffffffffffffffffffffffffffffffffffff1663a9059cbb610338610684565b8373ffffffffffffffffffffffffffffffffffffffff166370a08231306040518263ffffffff1660e01b81526004016103719190610ba0565b602060405180830381865afa15801561038e573d6000803e3d6000fd5b505050506040513d601f19601f820116820180604052508101906103b29190610e29565b6040518363ffffffff1660e01b81526004016103cf929190610d0f565b6020604051808303816000875af11580156103ee573d6000803e3d6000fd5b505050506040513d601f19601f820116820180604052508101906104129190610d70565b505050565b61041f61068c565b610427610684565b73ffffffffffffffffffffffffffffffffffffffff166108fc479081150290604051600060405180830381858888f1935050505015801561046c573d6000803e3d6000fd5b50565b6000610479610812565b905060008160000160089054906101000a900460ff1615905060008260000160009054906101000a900467ffffffffffffffff1690506000808267ffffffffffffffff161480156104c75750825b9050600060018367ffffffffffffffff161480156104fc575060003073ffffffffffffffffffffffffffffffffffffffff163b145b90508115801561050a575080155b15610541576040517ff92ee8a900000000000000000000000000000000000000000000000000000000815260040160405180910390fd5b60018560000160006101000a81548167ffffffffffffffff021916908367ffffffffffffffff16021790555083156105915760018560000160086101000a81548160ff0219169083151502179055505b61059a8661083a565b83156105f65760008560000160086101000a81548160ff0219169083151502179055507fc7f505b2f371ae2175ee4913f4499e1f2633a7b5936321eed1cdaeb6115181d260016040516105ed9190610eaf565b60405180910390a15b505050505050565b61060661068c565b600073ffffffffffffffffffffffffffffffffffffffff168173ffffffffffffffffffffffffffffffffffffffff16036106785760006040517f1e4fbdf700000000000000000000000000000000000000000000000000000000815260040161066f9190610ba0565b60405180910390fd5b61068181610713565b50565b600033905090565b610694610684565b73ffffffffffffffffffffffffffffffffffffffff166106b26102cf565b73ffffffffffffffffffffffffffffffffffffffff1614610711576106d5610684565b6040517f118cdaa70000000000000000000000000000000000000000000000000000000081526004016107089190610ba0565b60405180910390fd5b565b600061071d6107ea565b905060008160000160009054906101000a900473ffffffffffffffffffffffffffffffffffffffff169050828260000160006101000a81548173ffffffffffffffffffffffffffffffffffffffff021916908373ffffffffffffffffffffffffffffffffffffffff1602179055508273ffffffffffffffffffffffffffffffffffffffff168173ffffffffffffffffffffffffffffffffffffffff167f8be0079c531659141344cd1fd0a4f28419497f9722a3daafe3b4186f6b6457e060405160405180910390a3505050565b60007f9016d09d72d40fdae2fd8ceac6b6234c7706214fd39c1cd1e609a0528c199300905090565b60007ff0c57e16840df040f15088dc2f81fe391c3923bec73e23a9662efc9c229c6a00905090565b61084261084e565b61084b8161088e565b50565b610856610914565b61088c576040517fd7e6bcf800000000000000000000000000000000000000000000000000000000815260040160405180910390fd5b565b61089661084e565b600073ffffffffffffffffffffffffffffffffffffffff168173ffffffffffffffffffffffffffffffffffffffff16036109085760006040517f1e4fbdf70000000000000000000000000000000000000000000000000000000081526004016108ff9190610ba0565b60405180910390fd5b61091181610713565b50565b600061091e610812565b60000160089054906101000a900460ff16905090565b6000604051905090565b600080fd5b600080fd5b600080fd5b6000601f19601f8301169050919050565b7f4e487b7100000000000000000000000000000000000000000000000000000000600052604160045260246000fd5b6109968261094d565b810181811067ffffffffffffffff821117156109b5576109b461095e565b5b80604052505050565b60006109c8610934565b90506109d4828261098d565b919050565b600067ffffffffffffffff8211156109f4576109f361095e565b5b602082029050602081019050919050565b600080fd5b600073ffffffffffffffffffffffffffffffffffffffff82169050919050565b6000610a3582610a0a565b9050919050565b610a4581610a2a565b8114610a5057600080fd5b50565b600081359050610a6281610a3c565b92915050565b6000610a7b610a76846109d9565b6109be565b90508083825260208201905060208402830185811115610a9e57610a9d610a05565b5b835b81811015610ac75780610ab38882610a53565b845260208401935050602081019050610aa0565b5050509392505050565b600082601f830112610ae657610ae5610948565b5b8135610af6848260208601610a68565b91505092915050565b6000819050919050565b610b1281610aff565b8114610b1d57600080fd5b50565b600081359050610b2f81610b09565b92915050565b60008060408385031215610b4c57610b4b61093e565b5b600083013567ffffffffffffffff811115610b6a57610b69610943565b5b610b7685828601610ad1565b9250506020610b8785828601610b20565b9150509250929050565b610b9a81610a2a565b82525050565b6000602082019050610bb56000830184610b91565b92915050565b600060208284031215610bd157610bd061093e565b5b6000610bdf84828501610a53565b91505092915050565b600082825260208201905092915050565b7f4e6f20746f6b656e20636f6e7472616374732070726f76696465640000000000600082015250565b6000610c2f601b83610be8565b9150610c3a82610bf9565b602082019050919050565b60006020820190508181036000830152610c5e81610c22565b9050919050565b7f4e487b7100000000000000000000000000000000000000000000000000000000600052603260045260246000fd5b7f496e76616c696420746f6b656e20636f6e747261637420616464726573730000600082015250565b6000610cca601e83610be8565b9150610cd582610c94565b602082019050919050565b60006020820190508181036000830152610cf981610cbd565b9050919050565b610d0981610aff565b82525050565b6000604082019050610d246000830185610b91565b610d316020830184610d00565b9392505050565b60008115159050919050565b610d4d81610d38565b8114610d5857600080fd5b50565b600081519050610d6a81610d44565b92915050565b600060208284031215610d8657610d8561093e565b5b6000610d9484828501610d5b565b91505092915050565b7f4e487b7100000000000000000000000000000000000000000000000000000000600052601160045260246000fd5b6000610dd782610aff565b91507fffffffffffffffffffffffffffffffffffffffffffffffffffffffffffffffff8203610e0957610e08610d9d565b5b600182019050919050565b600081519050610e2381610b09565b92915050565b600060208284031215610e3f57610e3e61093e565b5b6000610e4d84828501610e14565b91505092915050565b6000819050919050565b600067ffffffffffffffff82169050919050565b6000819050919050565b6000610e99610e94610e8f84610e56565b610e74565b610e60565b9050919050565b610ea981610e7e565b82525050565b6000602082019050610ec46000830184610ea0565b9291505056fea2646970667358221220ba6b1da0052b23fbd4285d99eaef3285932453702a3ebd75c35cf53f5b92d8ff64736f6c63430008140033",
  "linkReferences": {},
  "deployedLinkReferences": {}
}